{
  "contractName": "RoomBooking",
  "abi": [
    {
      "inputs": [],
      "payable": false,
      "stateMutability": "nonpayable",
      "type": "constructor"
    },
    {
      "anonymous": false,
      "inputs": [
        {
          "indexed": false,
          "internalType": "uint256",
          "name": "id",
          "type": "uint256"
        },
        {
          "indexed": false,
          "internalType": "string",
          "name": "title",
          "type": "string"
        },
        {
          "indexed": false,
          "internalType": "string",
          "name": "description",
          "type": "string"
        },
        {
          "indexed": false,
          "internalType": "uint256",
          "name": "startDate",
          "type": "uint256"
        },
        {
          "indexed": false,
          "internalType": "uint256",
          "name": "endDate",
          "type": "uint256"
        },
        {
          "indexed": false,
          "internalType": "uint256",
          "name": "roomId",
          "type": "uint256"
        },
        {
          "indexed": false,
          "internalType": "string",
          "name": "status",
          "type": "string"
        },
        {
          "indexed": false,
          "internalType": "address",
          "name": "organizer",
          "type": "address"
        }
      ],
      "name": "ReservationCanceled",
      "type": "event"
    },
    {
      "anonymous": false,
      "inputs": [
        {
          "indexed": false,
          "internalType": "uint256",
          "name": "id",
          "type": "uint256"
        },
        {
          "indexed": false,
          "internalType": "string",
          "name": "title",
          "type": "string"
        },
        {
          "indexed": false,
          "internalType": "string",
          "name": "description",
          "type": "string"
        },
        {
          "indexed": false,
          "internalType": "uint256",
          "name": "startDate",
          "type": "uint256"
        },
        {
          "indexed": false,
          "internalType": "uint256",
          "name": "endDate",
          "type": "uint256"
        },
        {
          "indexed": false,
          "internalType": "uint256",
          "name": "roomId",
          "type": "uint256"
        },
        {
          "indexed": false,
          "internalType": "string",
          "name": "status",
          "type": "string"
        },
        {
          "indexed": false,
          "internalType": "address",
          "name": "organizer",
          "type": "address"
        }
      ],
      "name": "ReservationCreated",
      "type": "event"
    },
    {
      "anonymous": false,
      "inputs": [
        {
          "indexed": false,
          "internalType": "uint256",
          "name": "id",
          "type": "uint256"
        },
        {
          "indexed": false,
          "internalType": "string",
          "name": "name",
          "type": "string"
        },
        {
          "indexed": false,
          "internalType": "string",
          "name": "description",
          "type": "string"
        },
        {
          "indexed": false,
          "internalType": "uint256",
          "name": "capacity",
          "type": "uint256"
        },
        {
          "indexed": false,
          "internalType": "string",
          "name": "floor",
          "type": "string"
        },
        {
          "indexed": false,
          "internalType": "string",
          "name": "location",
          "type": "string"
        },
        {
          "indexed": false,
          "internalType": "string",
          "name": "owner",
          "type": "string"
        }
      ],
      "name": "RoomCreated",
      "type": "event"
    },
    {
      "constant": true,
      "inputs": [],
      "name": "name",
      "outputs": [
        {
          "internalType": "string",
          "name": "",
          "type": "string"
        }
      ],
      "payable": false,
      "stateMutability": "view",
      "type": "function"
    },
    {
      "constant": true,
      "inputs": [],
      "name": "reservationCount",
      "outputs": [
        {
          "internalType": "uint256",
          "name": "",
          "type": "uint256"
        }
      ],
      "payable": false,
      "stateMutability": "view",
      "type": "function"
    },
    {
      "constant": true,
      "inputs": [
        {
          "internalType": "uint256",
          "name": "",
          "type": "uint256"
        }
      ],
      "name": "reservations",
      "outputs": [
        {
          "internalType": "uint256",
          "name": "id",
          "type": "uint256"
        },
        {
          "internalType": "string",
          "name": "title",
          "type": "string"
        },
        {
          "internalType": "string",
          "name": "description",
          "type": "string"
        },
        {
          "internalType": "uint256",
          "name": "startDate",
          "type": "uint256"
        },
        {
          "internalType": "uint256",
          "name": "endDate",
          "type": "uint256"
        },
        {
          "internalType": "uint256",
          "name": "roomId",
          "type": "uint256"
        },
        {
          "internalType": "string",
          "name": "status",
          "type": "string"
        },
        {
          "internalType": "address",
          "name": "organizer",
          "type": "address"
        }
      ],
      "payable": false,
      "stateMutability": "view",
      "type": "function"
    },
    {
      "constant": true,
      "inputs": [],
      "name": "roomCount",
      "outputs": [
        {
          "internalType": "uint256",
          "name": "",
          "type": "uint256"
        }
      ],
      "payable": false,
      "stateMutability": "view",
      "type": "function"
    },
    {
      "constant": true,
      "inputs": [
        {
          "internalType": "uint256",
          "name": "",
          "type": "uint256"
        }
      ],
      "name": "rooms",
      "outputs": [
        {
          "internalType": "uint256",
          "name": "id",
          "type": "uint256"
        },
        {
          "internalType": "string",
          "name": "name",
          "type": "string"
        },
        {
          "internalType": "string",
          "name": "description",
          "type": "string"
        },
        {
          "internalType": "uint256",
          "name": "capacity",
          "type": "uint256"
        },
        {
          "internalType": "string",
          "name": "floor",
          "type": "string"
        },
        {
          "internalType": "string",
          "name": "location",
          "type": "string"
        },
        {
          "internalType": "string",
          "name": "owner",
          "type": "string"
        }
      ],
      "payable": false,
      "stateMutability": "view",
      "type": "function"
    },
    {
      "constant": false,
      "inputs": [
        {
          "internalType": "string",
          "name": "_name",
          "type": "string"
        },
        {
          "internalType": "string",
          "name": "_description",
          "type": "string"
        },
        {
          "internalType": "string",
          "name": "_owner",
          "type": "string"
        },
        {
          "internalType": "string",
          "name": "_floor",
          "type": "string"
        },
        {
          "internalType": "string",
          "name": "_location",
          "type": "string"
        },
        {
          "internalType": "uint256",
          "name": "_capacity",
          "type": "uint256"
        }
      ],
      "name": "createRoom",
      "outputs": [],
      "payable": false,
      "stateMutability": "nonpayable",
      "type": "function"
    },
    {
      "constant": false,
      "inputs": [
        {
          "internalType": "string",
          "name": "_title",
          "type": "string"
        },
        {
          "internalType": "string",
          "name": "_description",
          "type": "string"
        },
        {
          "internalType": "uint256",
          "name": "_startDate",
          "type": "uint256"
        },
        {
          "internalType": "uint256",
          "name": "_endDate",
          "type": "uint256"
        },
        {
          "internalType": "uint256",
          "name": "_roomId",
          "type": "uint256"
        }
      ],
      "name": "createReservation",
      "outputs": [],
      "payable": false,
      "stateMutability": "nonpayable",
      "type": "function"
    },
    {
      "constant": false,
      "inputs": [
        {
          "internalType": "uint256",
          "name": "_id",
          "type": "uint256"
        }
      ],
      "name": "cancelReservation",
      "outputs": [],
      "payable": false,
      "stateMutability": "nonpayable",
      "type": "function"
    }
  ],
  "bytecode": "0x6080604052600060015560006003553480156200001b57600080fd5b506040518060400160405280600c81526020017f526f6f6d20426f6f6b696e670000000000000000000000000000000000000000815250600090805190602001906200006992919062000070565b506200011f565b828054600181600116156101000203166002900490600052602060002090601f016020900481019282601f10620000b357805160ff1916838001178555620000e4565b82800160010185558215620000e4579182015b82811115620000e3578251825591602001919060010190620000c6565b5b509050620000f39190620000f7565b5090565b6200011c91905b8082111562000118576000816000905550600101620000fe565b5090565b90565b611f9f806200012f6000396000f3fe608060405234801561001057600080fd5b50600436106100885760003560e01c8063ae5e6cf41161005b578063ae5e6cf4146106b3578063d9d76d08146106e1578063df93a4e314610a02578063e84f756e14610a2057610088565b8063067cf8321461008d57806306fdde031461025b5780631bae0ac8146102de5780631fd4289114610543575b600080fd5b6100b9600480360360208110156100a357600080fd5b8101908080359060200190929190505050610a3e565b604051808981526020018060200180602001888152602001878152602001868152602001806020018573ffffffffffffffffffffffffffffffffffffffff1673ffffffffffffffffffffffffffffffffffffffff16815260200184810384528b818151815260200191508051906020019080838360005b8381101561014b578082015181840152602081019050610130565b50505050905090810190601f1680156101785780820380516001836020036101000a031916815260200191505b5084810383528a818151815260200191508051906020019080838360005b838110156101b1578082015181840152602081019050610196565b50505050905090810190601f1680156101de5780820380516001836020036101000a031916815260200191505b50848103825286818151815260200191508051906020019080838360005b838110156102175780820151818401526020810190506101fc565b50505050905090810190601f1680156102445780820380516001836020036101000a031916815260200191505b509b50505050505050505050505060405180910390f35b610263610c6e565b6040518080602001828103825283818151815260200191508051906020019080838360005b838110156102a3578082015181840152602081019050610288565b50505050905090810190601f1680156102d05780820380516001836020036101000a031916815260200191505b509250505060405180910390f35b61030a600480360360208110156102f457600080fd5b8101908080359060200190929190505050610d0c565b60405180888152602001806020018060200187815260200180602001806020018060200186810386528c818151815260200191508051906020019080838360005b8381101561036657808201518184015260208101905061034b565b50505050905090810190601f1680156103935780820380516001836020036101000a031916815260200191505b5086810385528b818151815260200191508051906020019080838360005b838110156103cc5780820151818401526020810190506103b1565b50505050905090810190601f1680156103f95780820380516001836020036101000a031916815260200191505b50868103845289818151815260200191508051906020019080838360005b83811015610432578082015181840152602081019050610417565b50505050905090810190601f16801561045f5780820380516001836020036101000a031916815260200191505b50868103835288818151815260200191508051906020019080838360005b8381101561049857808201518184015260208101905061047d565b50505050905090810190601f1680156104c55780820380516001836020036101000a031916815260200191505b50868103825287818151815260200191508051906020019080838360005b838110156104fe5780820151818401526020810190506104e3565b50505050905090810190601f16801561052b5780820380516001836020036101000a031916815260200191505b509c5050505050505050505050505060405180910390f35b6106b1600480360360a081101561055957600080fd5b810190808035906020019064010000000081111561057657600080fd5b82018360208201111561058857600080fd5b803590602001918460018302840111640100000000831117156105aa57600080fd5b91908080601f016020809104026020016040519081016040528093929190818152602001838380828437600081840152601f19601f8201169050808301925050505050505091929192908035906020019064010000000081111561060d57600080fd5b82018360208201111561061f57600080fd5b8035906020019184600183028401116401000000008311171561064157600080fd5b91908080601f016020809104026020016040519081016040528093929190818152602001838380828437600081840152601f19601f820116905080830192505050505050509192919290803590602001909291908035906020019092919080359060200190929190505050611046565b005b6106df600480360360208110156106c957600080fd5b8101908080359060200190929190505050611479565b005b610a00600480360360c08110156106f757600080fd5b810190808035906020019064010000000081111561071457600080fd5b82018360208201111561072657600080fd5b8035906020019184600183028401116401000000008311171561074857600080fd5b91908080601f016020809104026020016040519081016040528093929190818152602001838380828437600081840152601f19601f820116905080830192505050505050509192919290803590602001906401000000008111156107ab57600080fd5b8201836020820111156107bd57600080fd5b803590602001918460018302840111640100000000831117156107df57600080fd5b91908080601f016020809104026020016040519081016040528093929190818152602001838380828437600081840152601f19601f8201169050808301925050505050505091929192908035906020019064010000000081111561084257600080fd5b82018360208201111561085457600080fd5b8035906020019184600183028401116401000000008311171561087657600080fd5b91908080601f016020809104026020016040519081016040528093929190818152602001838380828437600081840152601f19601f820116905080830192505050505050509192919290803590602001906401000000008111156108d957600080fd5b8201836020820111156108eb57600080fd5b8035906020019184600183028401116401000000008311171561090d57600080fd5b91908080601f016020809104026020016040519081016040528093929190818152602001838380828437600081840152601f19601f8201169050808301925050505050505091929192908035906020019064010000000081111561097057600080fd5b82018360208201111561098257600080fd5b803590602001918460018302840111640100000000831117156109a457600080fd5b91908080601f016020809104026020016040519081016040528093929190818152602001838380828437600081840152601f19601f82011690508083019250505050505050919291929080359060200190929190505050611a9d565b005b610a0a611e5e565b6040518082815260200191505060405180910390f35b610a28611e64565b6040518082815260200191505060405180910390f35b6002602052806000526040600020600091509050806000015490806001018054600181600116156101000203166002900480601f016020809104026020016040519081016040528092919081815260200182805460018160011615610100020316600290048015610af05780601f10610ac557610100808354040283529160200191610af0565b820191906000526020600020905b815481529060010190602001808311610ad357829003601f168201915b505050505090806002018054600181600116156101000203166002900480601f016020809104026020016040519081016040528092919081815260200182805460018160011615610100020316600290048015610b8e5780601f10610b6357610100808354040283529160200191610b8e565b820191906000526020600020905b815481529060010190602001808311610b7157829003601f168201915b505050505090806003015490806004015490806005015490806006018054600181600116156101000203166002900480601f016020809104026020016040519081016040528092919081815260200182805460018160011615610100020316600290048015610c3e5780601f10610c1357610100808354040283529160200191610c3e565b820191906000526020600020905b815481529060010190602001808311610c2157829003601f168201915b5050505050908060070160009054906101000a900473ffffffffffffffffffffffffffffffffffffffff16905088565b60008054600181600116156101000203166002900480601f016020809104026020016040519081016040528092919081815260200182805460018160011615610100020316600290048015610d045780601f10610cd957610100808354040283529160200191610d04565b820191906000526020600020905b815481529060010190602001808311610ce757829003601f168201915b505050505081565b6004602052806000526040600020600091509050806000015490806001018054600181600116156101000203166002900480601f016020809104026020016040519081016040528092919081815260200182805460018160011615610100020316600290048015610dbe5780601f10610d9357610100808354040283529160200191610dbe565b820191906000526020600020905b815481529060010190602001808311610da157829003601f168201915b505050505090806002018054600181600116156101000203166002900480601f016020809104026020016040519081016040528092919081815260200182805460018160011615610100020316600290048015610e5c5780601f10610e3157610100808354040283529160200191610e5c565b820191906000526020600020905b815481529060010190602001808311610e3f57829003601f168201915b505050505090806003015490806004018054600181600116156101000203166002900480601f016020809104026020016040519081016040528092919081815260200182805460018160011615610100020316600290048015610f005780601f10610ed557610100808354040283529160200191610f00565b820191906000526020600020905b815481529060010190602001808311610ee357829003601f168201915b505050505090806005018054600181600116156101000203166002900480601f016020809104026020016040519081016040528092919081815260200182805460018160011615610100020316600290048015610f9e5780601f10610f7357610100808354040283529160200191610f9e565b820191906000526020600020905b815481529060010190602001808311610f8157829003601f168201915b505050505090806006018054600181600116156101000203166002900480601f01602080910402602001604051908101604052809291908181526020018280546001816001161561010002031660029004801561103c5780601f106110115761010080835404028352916020019161103c565b820191906000526020600020905b81548152906001019060200180831161101f57829003601f168201915b5050505050905087565b600085511161105457600080fd5b600084511161106257600080fd5b6000831161106f57600080fd5b6000821161107c57600080fd5b6000811161108957600080fd5b60006004600083815260200190815260200160002060010180546001816001161561010002031660029004905011611129576040517f08c379a00000000000000000000000000000000000000000000000000000000081526004018080602001828103825260148152602001807f526f6f6d20646f6573206e6f742065786973742e00000000000000000000000081525060200191505060405180910390fd5b600073ffffffffffffffffffffffffffffffffffffffff163373ffffffffffffffffffffffffffffffffffffffff16141561116357600080fd5b60016000815480929190600101919050555060405180610100016040528060015481526020018681526020018581526020018481526020018381526020018281526020016040518060400160405280600981526020017f436f6e6669726d6564000000000000000000000000000000000000000000000081525081526020013373ffffffffffffffffffffffffffffffffffffffff16815250600260006001548152602001908152602001600020600082015181600001556020820151816001019080519060200190611237929190611e6a565b506040820151816002019080519060200190611254929190611e6a565b50606082015181600301556080820151816004015560a0820151816005015560c082015181600601908051906020019061128f929190611e6a565b5060e08201518160070160006101000a81548173ffffffffffffffffffffffffffffffffffffffff021916908373ffffffffffffffffffffffffffffffffffffffff1602179055509050507f30e34a6aefbe3ca4ce62805c85483664c417a948975dc6a2b19f529962228dcf600154868686868633604051808881526020018060200180602001878152602001868152602001858152602001806020018573ffffffffffffffffffffffffffffffffffffffff1673ffffffffffffffffffffffffffffffffffffffff16815260200184810384528a818151815260200191508051906020019080838360005b8381101561139657808201518184015260208101905061137b565b50505050905090810190601f1680156113c35780820380516001836020036101000a031916815260200191505b50848103835289818151815260200191508051906020019080838360005b838110156113fc5780820151818401526020810190506113e1565b50505050905090810190601f1680156114295780820380516001836020036101000a031916815260200191505b50848103825260098152602001807f436f6e6669726d656400000000000000000000000000000000000000000000008152506020019a505050505050505050505060405180910390a15050505050565b60008111801561148b57506001548111155b61149457600080fd5b61149c611eea565b600260008381526020019081526020016000206040518061010001604052908160008201548152602001600182018054600181600116156101000203166002900480601f01602080910402602001604051908101604052809291908181526020018280546001816001161561010002031660029004801561155e5780601f106115335761010080835404028352916020019161155e565b820191906000526020600020905b81548152906001019060200180831161154157829003601f168201915b50505050508152602001600282018054600181600116156101000203166002900480601f0160208091040260200160405190810160405280929190818152602001828054600181600116156101000203166002900480156116005780601f106115d557610100808354040283529160200191611600565b820191906000526020600020905b8154815290600101906020018083116115e357829003601f168201915b50505050508152602001600382015481526020016004820154815260200160058201548152602001600682018054600181600116156101000203166002900480601f0160208091040260200160405190810160405280929190818152602001828054600181600116156101000203166002900480156116c05780601f10611695576101008083540402835291602001916116c0565b820191906000526020600020905b8154815290600101906020018083116116a357829003601f168201915b505050505081526020016007820160009054906101000a900473ffffffffffffffffffffffffffffffffffffffff1673ffffffffffffffffffffffffffffffffffffffff1673ffffffffffffffffffffffffffffffffffffffff168152505090508060e0015173ffffffffffffffffffffffffffffffffffffffff163373ffffffffffffffffffffffffffffffffffffffff16146117c6576040517f08c379a000000000000000000000000000000000000000000000000000000000815260040180806020018281038252601b8152602001807f43616c6c6572206973206e6f7420746865206f7267616e697a6572000000000081525060200191505060405180910390fd5b60608160c0015190506040518060400160405280600881526020017f43616e63656c65640000000000000000000000000000000000000000000000008152508260c001819052508160026000858152602001908152602001600020600082015181600001556020820151816001019080519060200190611847929190611e6a565b506040820151816002019080519060200190611864929190611e6a565b50606082015181600301556080820151816004015560a0820151816005015560c082015181600601908051906020019061189f929190611e6a565b5060e08201518160070160006101000a81548173ffffffffffffffffffffffffffffffffffffffff021916908373ffffffffffffffffffffffffffffffffffffffff1602179055509050507fd876e69927e5d13860a03ff82f055cdc0d719bd9da743eeece59d24b5922d948826000015183602001518460400151856060015186608001518760a0015133604051808881526020018060200180602001878152602001868152602001858152602001806020018573ffffffffffffffffffffffffffffffffffffffff1673ffffffffffffffffffffffffffffffffffffffff16815260200184810384528a818151815260200191508051906020019080838360005b838110156119bc5780820151818401526020810190506119a1565b50505050905090810190601f1680156119e95780820380516001836020036101000a031916815260200191505b50848103835289818151815260200191508051906020019080838360005b83811015611a22578082015181840152602081019050611a07565b50505050905090810190601f168015611a4f5780820380516001836020036101000a031916815260200191505b50848103825260088152602001807f43616e63656c65640000000000000000000000000000000000000000000000008152506020019a505050505050505050505060405180910390a1505050565b6000865111611aab57600080fd5b6000855111611ab957600080fd5b6000845111611ac757600080fd5b6000835111611ad557600080fd5b6000825111611ae357600080fd5b60008111611af057600080fd5b6003600081548092919060010191905055506040518060e00160405280600354815260200187815260200186815260200182815260200184815260200183815260200185815250600460006003548152602001908152602001600020600082015181600001556020820151816001019080519060200190611b72929190611e6a565b506040820151816002019080519060200190611b8f929190611e6a565b50606082015181600301556080820151816004019080519060200190611bb6929190611e6a565b5060a0820151816005019080519060200190611bd3929190611e6a565b5060c0820151816006019080519060200190611bf0929190611e6a565b509050507fc98a2cfffb0a90bacd09e457bb52a8f55ff23b7c134c76b54dd7692e7cba12fc60035487878487878a60405180888152602001806020018060200187815260200180602001806020018060200186810386528c818151815260200191508051906020019080838360005b83811015611c7a578082015181840152602081019050611c5f565b50505050905090810190601f168015611ca75780820380516001836020036101000a031916815260200191505b5086810385528b818151815260200191508051906020019080838360005b83811015611ce0578082015181840152602081019050611cc5565b50505050905090810190601f168015611d0d5780820380516001836020036101000a031916815260200191505b50868103845289818151815260200191508051906020019080838360005b83811015611d46578082015181840152602081019050611d2b565b50505050905090810190601f168015611d735780820380516001836020036101000a031916815260200191505b50868103835288818151815260200191508051906020019080838360005b83811015611dac578082015181840152602081019050611d91565b50505050905090810190601f168015611dd95780820380516001836020036101000a031916815260200191505b50868103825287818151815260200191508051906020019080838360005b83811015611e12578082015181840152602081019050611df7565b50505050905090810190601f168015611e3f5780820380516001836020036101000a031916815260200191505b509c5050505050505050505050505060405180910390a1505050505050565b60035481565b60015481565b828054600181600116156101000203166002900490600052602060002090601f016020900481019282601f10611eab57805160ff1916838001178555611ed9565b82800160010185558215611ed9579182015b82811115611ed8578251825591602001919060010190611ebd565b5b509050611ee69190611f45565b5090565b60405180610100016040528060008152602001606081526020016060815260200160008152602001600081526020016000815260200160608152602001600073ffffffffffffffffffffffffffffffffffffffff1681525090565b611f6791905b80821115611f63576000816000905550600101611f4b565b5090565b9056fea265627a7a7231582004da9a7271d10d627d0cf5fb139904079daac2b9dc45b86d7f91b186fc3f6a5b64736f6c63430005100032",
  "source": "pragma solidity ^0.5.0;\r\n\r\ncontract RoomBooking {\r\n\r\n    string public name;\r\n    uint public reservationCount = 0;\r\n    mapping(uint => Reservation) public reservations;\r\n    \r\n    uint public roomCount = 0;\r\n    mapping(uint => Room) public rooms;\r\n    \r\n    enum Owners { coke, pepsi }\r\n\r\n    struct Room {\r\n        uint id;\r\n        string name;\r\n        string description;\r\n        uint capacity;\r\n        string floor;\r\n        string location;\r\n        string owner;\r\n    }\r\n    \r\n    event RoomCreated(\r\n        uint id,\r\n        string name,\r\n        string description,\r\n        uint capacity,\r\n        string floor,\r\n        string location,\r\n        string owner\r\n    );\r\n    \r\n    enum Statuses { Confirmed, Canceled }\r\n\r\n    struct Reservation {\r\n        uint id;\r\n        string title;\r\n        string description;\r\n        uint startDate;\r\n        uint endDate;\r\n        uint roomId;\r\n        string status;\r\n        address organizer;\r\n    }\r\n\r\n    event ReservationCreated(\r\n        uint id,\r\n        string title,\r\n        string description,\r\n        uint startDate,\r\n        uint endDate,\r\n        uint roomId,\r\n        string status,\r\n        address organizer\r\n    );\r\n\r\n    event ReservationCanceled(\r\n        uint id,\r\n        string title,\r\n        string description,\r\n        uint startDate,\r\n        uint endDate,\r\n        uint roomId,\r\n        string status,\r\n        address organizer\r\n    );\r\n\r\n    constructor() public {\r\n        name = \"Room Booking\";\r\n    }\r\n\r\n    // modifier onlyWhileVacant {\r\n    //     require(currentStatus == Statuses.Vacant, \"Currently occupied.\");\r\n    //     _;\r\n    // }\r\n    \r\n    function createRoom(\r\n        string memory _name, \r\n        string memory _description,\r\n        string memory _owner, \r\n        string memory _floor, \r\n        string memory _location, \r\n        uint _capacity\r\n    ) public {\r\n        // check if items exist\r\n        require(bytes(_name).length > 0);\r\n        require(bytes(_description).length > 0);\r\n        require(bytes(_owner).length > 0);\r\n        require(bytes(_floor).length > 0);\r\n        require(bytes(_location).length > 0);\r\n        require(_capacity > 0);\r\n\r\n        // increment rooms\r\n        roomCount ++;\r\n\r\n        rooms[roomCount] = Room(roomCount, _name, _description, _capacity, _floor, _location, _owner);\r\n\r\n        emit RoomCreated(roomCount, _name, _description, _capacity, _floor, _location, _owner);\r\n    }\r\n\r\n    function createReservation(\r\n        string memory _title, \r\n        string memory _description, \r\n        uint _startDate, \r\n        uint _endDate,\r\n        uint _roomId\r\n    ) public {\r\n        // check if items exist\r\n        require(bytes(_title).length > 0);\r\n        require(bytes(_description).length > 0);\r\n        require(_startDate > 0);\r\n        require(_endDate > 0);\r\n        require(_roomId > 0);\r\n        require(bytes(rooms[_roomId].name).length > 0, \"Room does not exist.\");\r\n\r\n        // Make sure uploader address exists\r\n        require(msg.sender!=address(0));\r\n\r\n        // increment reservations\r\n        reservationCount ++;\r\n\r\n        reservations[reservationCount] = Reservation(reservationCount, _title, _description, _startDate, _endDate, _roomId, \"Confirmed\", msg.sender);\r\n\r\n        emit ReservationCreated(reservationCount, _title, _description, _startDate, _endDate, _roomId, \"Confirmed\", msg.sender);\r\n    }\r\n\r\n\r\n    function cancelReservation(uint _id) public {\r\n        require(_id > 0 && _id <= reservationCount);\r\n\r\n        Reservation memory _reservation = reservations[_id];\r\n        \r\n        require(msg.sender == _reservation.organizer, \"Caller is not the organizer\");\r\n        \r\n        string memory _status = _reservation.status;\r\n        \r\n        _reservation.status = \"Canceled\";\r\n        // Update the reservation\r\n        reservations[_id] = _reservation;\r\n\r\n        emit ReservationCanceled(_reservation.id, _reservation.title, _reservation.description, _reservation.startDate, _reservation.endDate, _reservation.roomId, \"Canceled\", msg.sender);\r\n    }\r\n}",
  "compiler": {
    "name": "solc",
    "version": "0.5.16+commit.9c3226ce.Emscripten.clang"
  },
  "schemaVersion": "3.3.4",
  "updatedAt": "2021-03-30T22:10:47.788Z",
  "devdoc": {
    "methods": {}
  },
  "userdoc": {
    "methods": {}
  }
}